{
  "contractName": "Lottery",
  "abi": [
    {
      "constant": true,
      "inputs": [
        {
          "name": "",
          "type": "uint256"
        }
      ],
      "name": "userAddresses",
      "outputs": [
        {
          "name": "",
          "type": "address"
        }
      ],
      "payable": false,
      "stateMutability": "view",
      "type": "function",
      "signature": "0x502c9bd5"
    },
    {
      "constant": true,
      "inputs": [],
      "name": "owner",
      "outputs": [
        {
          "name": "",
          "type": "address"
        }
      ],
      "payable": false,
      "stateMutability": "view",
      "type": "function",
      "signature": "0x8da5cb5b"
    },
    {
      "constant": true,
      "inputs": [
        {
          "name": "",
          "type": "address"
        }
      ],
      "name": "users",
      "outputs": [
        {
          "name": "userAddress",
          "type": "address"
        },
        {
          "name": "tokensBought",
          "type": "uint256"
        }
      ],
      "payable": false,
      "stateMutability": "view",
      "type": "function",
      "signature": "0xa87430ba"
    },
    {
      "inputs": [
        {
          "name": "_winningGuess",
          "type": "uint256"
        }
      ],
      "payable": false,
      "stateMutability": "nonpayable",
      "type": "constructor",
      "signature": "constructor"
    },
    {
      "constant": true,
      "inputs": [
        {
          "name": "_user",
          "type": "address"
        }
      ],
      "name": "userTokens",
      "outputs": [
        {
          "name": "",
          "type": "uint256"
        }
      ],
      "payable": false,
      "stateMutability": "view",
      "type": "function",
      "signature": "0xed498fa8"
    },
    {
      "constant": true,
      "inputs": [
        {
          "name": "_user",
          "type": "address"
        }
      ],
      "name": "userGuesses",
      "outputs": [
        {
          "name": "",
          "type": "uint256[]"
        }
      ],
      "payable": false,
      "stateMutability": "view",
      "type": "function",
      "signature": "0x445a5fa3"
    },
    {
      "constant": true,
      "inputs": [],
      "name": "winningGuess",
      "outputs": [
        {
          "name": "",
          "type": "bytes32"
        }
      ],
      "payable": false,
      "stateMutability": "view",
      "type": "function",
      "signature": "0x98da61af"
    },
    {
      "constant": false,
      "inputs": [],
      "name": "makeUser",
      "outputs": [],
      "payable": false,
      "stateMutability": "nonpayable",
      "type": "function",
      "signature": "0xd18a524a"
    },
    {
      "constant": false,
      "inputs": [],
      "name": "addTokens",
      "outputs": [],
      "payable": true,
      "stateMutability": "payable",
      "type": "function",
      "signature": "0xd5f4f0b3"
    },
    {
      "constant": false,
      "inputs": [
        {
          "name": "_userGuess",
          "type": "uint256"
        }
      ],
      "name": "makeGuess",
      "outputs": [],
      "payable": false,
      "stateMutability": "nonpayable",
      "type": "function",
      "signature": "0x22666da6"
    },
    {
      "constant": false,
      "inputs": [],
      "name": "closeGame",
      "outputs": [
        {
          "name": "",
          "type": "address"
        }
      ],
      "payable": false,
      "stateMutability": "nonpayable",
      "type": "function",
      "signature": "0x786b844b"
    },
    {
      "constant": false,
      "inputs": [],
      "name": "winnerAddress",
      "outputs": [
        {
          "name": "",
          "type": "address"
        }
      ],
      "payable": false,
      "stateMutability": "nonpayable",
      "type": "function",
      "signature": "0xed7a4e0b"
    },
    {
      "constant": false,
      "inputs": [],
      "name": "getPrice",
      "outputs": [
        {
          "name": "",
          "type": "uint256"
        }
      ],
      "payable": false,
      "stateMutability": "nonpayable",
      "type": "function",
      "signature": "0x98d5fdca"
    }
  ],
  "bytecode": "0x608060405234801561001057600080fd5b50604051602080610e368339810180604052810190808051906020019092919050505033600260006101000a81548173ffffffffffffffffffffffffffffffffffffffff021916908373ffffffffffffffffffffffffffffffffffffffff160217905550806040518082815260200191505060405180910390206003816000191690555050610d92806100a46000396000f3006080604052600436106100ba576000357c0100000000000000000000000000000000000000000000000000000000900463ffffffff16806322666da6146100bf578063445a5fa3146100ec578063502c9bd514610184578063786b844b146101f15780638da5cb5b1461024857806398d5fdca1461029f57806398da61af146102ca578063a87430ba146102fd578063d18a524a14610387578063d5f4f0b31461039e578063ed498fa8146103a8578063ed7a4e0b146103ff575b600080fd5b3480156100cb57600080fd5b506100ea60048036038101908080359060200190929190505050610456565b005b3480156100f857600080fd5b5061012d600480360381019080803573ffffffffffffffffffffffffffffffffffffffff169060200190929190505050610574565b6040518080602001828103825283818151815260200191508051906020019060200280838360005b83811015610170578082015181840152602081019050610155565b505050509050019250505060405180910390f35b34801561019057600080fd5b506101af6004803603810190808035906020019092919050505061060d565b604051808273ffffffffffffffffffffffffffffffffffffffff1673ffffffffffffffffffffffffffffffffffffffff16815260200191505060405180910390f35b3480156101fd57600080fd5b5061020661064b565b604051808273ffffffffffffffffffffffffffffffffffffffff1673ffffffffffffffffffffffffffffffffffffffff16815260200191505060405180910390f35b34801561025457600080fd5b5061025d6106bb565b604051808273ffffffffffffffffffffffffffffffffffffffff1673ffffffffffffffffffffffffffffffffffffffff16815260200191505060405180910390f35b3480156102ab57600080fd5b506102b46106e1565b6040518082815260200191505060405180910390f35b3480156102d657600080fd5b506102df610934565b60405180826000191660001916815260200191505060405180910390f35b34801561030957600080fd5b5061033e600480360381019080803573ffffffffffffffffffffffffffffffffffffffff16906020019092919050505061093e565b604051808373ffffffffffffffffffffffffffffffffffffffff1673ffffffffffffffffffffffffffffffffffffffff1681526020018281526020019250505060405180910390f35b34801561039357600080fd5b5061039c610982565b005b6103a6610ab1565b005b3480156103b457600080fd5b506103e9600480360381019080803573ffffffffffffffffffffffffffffffffffffffff169060200190929190505050610bc2565b6040518082815260200191505060405180910390f35b34801561040b57600080fd5b50610414610c0d565b604051808273ffffffffffffffffffffffffffffffffffffffff1673ffffffffffffffffffffffffffffffffffffffff16815260200191505060405180910390f35b620f4240811080156104a9575060008060003373ffffffffffffffffffffffffffffffffffffffff1673ffffffffffffffffffffffffffffffffffffffff16815260200190815260200160002060010154115b15156104b457600080fd5b6000803373ffffffffffffffffffffffffffffffffffffffff1673ffffffffffffffffffffffffffffffffffffffff1681526020019081526020016000206002018190806001815401808255809150509060018203906000526020600020016000909192909190915055506000803373ffffffffffffffffffffffffffffffffffffffff1673ffffffffffffffffffffffffffffffffffffffff168152602001908152602001600020600101600081548092919060019003919050555050565b60606000808373ffffffffffffffffffffffffffffffffffffffff1673ffffffffffffffffffffffffffffffffffffffff16815260200190815260200160002060020180548060200260200160405190810160405280929190818152602001828054801561060157602002820191906000526020600020905b8154815260200190600101908083116105ed575b50505050509050919050565b60018181548110151561061c57fe5b906000526020600020016000915054906101000a900473ffffffffffffffffffffffffffffffffffffffff1681565b6000803373ffffffffffffffffffffffffffffffffffffffff16600260009054906101000a900473ffffffffffffffffffffffffffffffffffffffff1673ffffffffffffffffffffffffffffffffffffffff161415156106aa57600080fd5b6106b2610c0d565b90508091505090565b600260009054906101000a900473ffffffffffffffffffffffffffffffffffffffff1681565b60008060003373ffffffffffffffffffffffffffffffffffffffff16600260009054906101000a900473ffffffffffffffffffffffffffffffffffffffff1673ffffffffffffffffffffffffffffffffffffffff1614151561074257600080fd5b61074a610c0d565b9150600260009054906101000a900473ffffffffffffffffffffffffffffffffffffffff1673ffffffffffffffffffffffffffffffffffffffff168273ffffffffffffffffffffffffffffffffffffffff16141561082757600260009054906101000a900473ffffffffffffffffffffffffffffffffffffffff1673ffffffffffffffffffffffffffffffffffffffff166108fc3073ffffffffffffffffffffffffffffffffffffffff16319081150290604051600060405180830381858888f19350505050158015610821573d6000803e3d6000fd5b50610915565b60023073ffffffffffffffffffffffffffffffffffffffff163181151561084a57fe5b0490508173ffffffffffffffffffffffffffffffffffffffff166108fc829081150290604051600060405180830381858888f19350505050158015610893573d6000803e3d6000fd5b50600260009054906101000a900473ffffffffffffffffffffffffffffffffffffffff1673ffffffffffffffffffffffffffffffffffffffff166108fc3073ffffffffffffffffffffffffffffffffffffffff16319081150290604051600060405180830381858888f19350505050158015610913573d6000803e3d6000fd5b505b3073ffffffffffffffffffffffffffffffffffffffff16319250505090565b6000600354905090565b60006020528060005260406000206000915090508060000160009054906101000a900473ffffffffffffffffffffffffffffffffffffffff16908060010154905082565b336000803373ffffffffffffffffffffffffffffffffffffffff1673ffffffffffffffffffffffffffffffffffffffff16815260200190815260200160002060000160006101000a81548173ffffffffffffffffffffffffffffffffffffffff021916908373ffffffffffffffffffffffffffffffffffffffff16021790555060008060003373ffffffffffffffffffffffffffffffffffffffff1673ffffffffffffffffffffffffffffffffffffffff1681526020019081526020016000206001018190555060013390806001815401808255809150509060018203906000526020600020016000909192909190916101000a81548173ffffffffffffffffffffffffffffffffffffffff021916908373ffffffffffffffffffffffffffffffffffffffff16021790555050565b6000806000809250670de0b6b3a764000034811515610acc57fe5b049150600090505b600180549050811015610b64573373ffffffffffffffffffffffffffffffffffffffff16600182815481101515610b0757fe5b9060005260206000200160009054906101000a900473ffffffffffffffffffffffffffffffffffffffff1673ffffffffffffffffffffffffffffffffffffffff161415610b575760019250610b64565b8080600101915050610ad4565b6001831415610bbd57816000803373ffffffffffffffffffffffffffffffffffffffff1673ffffffffffffffffffffffffffffffffffffffff168152602001908152602001600020600101600082825401925050819055505b505050565b60008060008373ffffffffffffffffffffffffffffffffffffffff1673ffffffffffffffffffffffffffffffffffffffff168152602001908152602001600020600101549050919050565b600080600080600092505b600180549050831015610d3a57600080600185815481101515610c3757fe5b9060005260206000200160009054906101000a900473ffffffffffffffffffffffffffffffffffffffff1673ffffffffffffffffffffffffffffffffffffffff1673ffffffffffffffffffffffffffffffffffffffff1681526020019081526020016000209150600090505b8160020180549050811015610d2d57600354600019168260020182815481101515610cca57fe5b9060005260206000200154604051808281526020019150506040518091039020600019161415610d20578160000160009054906101000a900473ffffffffffffffffffffffffffffffffffffffff169350610d60565b8080600101915050610ca3565b8280600101935050610c18565b600260009054906101000a900473ffffffffffffffffffffffffffffffffffffffff1693505b505050905600a165627a7a723058209619845dbe2005558f5ec791b7f8d358b4318abcafb6e7831520b32ef70091550029",
  "source": "pragma solidity ^0.4.17;\n//the pragma line is the preprocessor directive, tells the version of solidity compiler\n\ncontract Lottery {\n\t//struct used to store the user information\n\tstruct User {\n\t\taddress userAddress;\n\t\tuint tokensBought;\n    uint[] guess;\n\t}\n\n\t// a list of the users\n\tmapping (address => User) public users;\n\n  address[] public userAddresses;\n\n\taddress public owner;\n\tbytes32 winningGuessSha3;\n\n\t//contructor function\n\tfunction Lottery(uint _winningGuess) {\n\t\t// by default the owner of the contract is accounts[0] to set the owner change truffle.js\n\t\towner = msg.sender;\n\t\twinningGuessSha3 = keccak256(_winningGuess);\n\t}\n\n  // returns the number of tokens purchased by an account\n  function userTokens(address _user) view public returns (uint) {\n    return users[_user].tokensBought;\n  }\n\n  // returns the guess made by user so far\n  function userGuesses(address _user) view public returns(uint[]) {\n    return users[_user].guess;\n  }\n\n  // returns the winning guess\n  function winningGuess() view public returns(bytes32) {\n    return winningGuessSha3;\n  }\n\n  // to add a new user to the contract to make guesses\n  function makeUser() public{\n    users[msg.sender].userAddress = msg.sender;\n    users[msg.sender].tokensBought = 0;\n    userAddresses.push(msg.sender);\n  }\n\n\t// function to add tokens to the user that calls the contract\n  // the money held in contract is sent using a payable modifier function\n  // money can be released using selfdestruct(address)\n\tfunction addTokens() payable {\n    uint present = 0;\n    uint tokensToAdd = msg.value/(10**18);\n\n    for(uint i = 0; i < userAddresses.length; i++) {\n      if(userAddresses[i] == msg.sender) {\n        present = 1;\n        break;\n      }\n    }\n\n    // adding tokens if the user present in the userAddresses array\n    if (present == 1) {\n      users[msg.sender].tokensBought += tokensToAdd;\n    }\n\t}\n\n\t// to add user guesses\n\tfunction makeGuess(uint _userGuess) {\n    require(_userGuess < 1000000 && users[msg.sender].tokensBought > 0);\n    users[msg.sender].guess.push(_userGuess);\n    users[msg.sender].tokensBought--;\n\t}\n\n\t// doesn't allow anyone to buy anymore tokens\n\tfunction closeGame() returns(address){\n    // can only be called my the owner of the contract\n\t\trequire(owner == msg.sender);\n    address winner = winnerAddress();\n    return winner;\n\t}\n\n\t// returns the address of the winner once the game is closed\n\tfunction winnerAddress() returns(address) {\n    for(uint i = 0; i < userAddresses.length; i++) {\n      User user= users[userAddresses[i]];\n\n      for(uint j = 0; j < user.guess.length; j++) {\n        if (keccak256(user.guess[j]) == winningGuessSha3) {\n          return user.userAddress;\n        }\n      }\n    }\n    // the owner wins if there are no winning guesses\n    return owner;\n\t}\n\n\t// sends 50% of the ETH in contract to the winner and rest of it to the owner\n\tfunction getPrice() returns (uint){\n    require(owner == msg.sender);\n    address winner = winnerAddress();\n    if (winner == owner) {\n      owner.transfer(address(this).balance);\n    } else {\n      // returns the half the balance of the contract\n      uint toTransfer = address(this).balance / 2;\n\n      // transfer 50% to the winner\n      winner.transfer(toTransfer);\n      // transfer rest of the balance to the owner of the contract\n      owner.transfer(address(this).balance);\n    }\n    return address(this).balance;\n\t}\n}\n",
  "sourcePath": "C:/Users/User/Desktop/nipa_/Lottery-DApp-master/Lottery-DApp-master/contracts/Lottery.sol",
  "compiler": {
    "name": "solc",
    "version": "0.4.26+commit.4563c3fc.Emscripten.clang"
  },
  "schemaVersion": "3.0.8",
  "updatedAt": "2019-05-02T15:14:54.879Z",
  "devdoc": {
    "methods": {}
  },
  "userdoc": {
    "methods": {}
  }
}